:020000040800F2
:100000000000022039110008811100088111000848
:100010008111000881110008811100080000000012
:100020000000000000000000000000008111000836
:10003000811100080000000081110008F103000890
:100040008111000881110008811100088111000848
:100050008111000881110008811100088111000838
:100060008111000881110008811100088111000828
:100070008111000881110008811100088111000818
:100080008111000881110008811100088111000808
:1000900081110008811100088111000881110008F8
:1000A00081110008811100088111000881110008E8
:1000B00081110008811100088111000881110008D8
:1000C00081110008811100088111000881110008C8
:1000D00081110008811100088111000881110008B8
:1000E00081110008811100088111000881110008A8
:1000F0008111000881110008811100088111000898
:100100008111000881110008811100088111000887
:100110008111000881110008811100088111000877
:100120008111000881110008811100088111000867
:100130008111000881110008811100088111000857
:100140008111000881110008811100088111000847
:100150008111000881110008811100088111000837
:100160008111000881110008811100088111000827
:100170008111000881110008811100088111000817
:08018000811100088111000843
:1001880010B5054C237833B9044B13B10448AFF3C9
:1001980000800123237010BD5C04002000000000D3
:1001A800B814000808B5034B1BB103490348AFF363
:1001B800008008BD0000000060040020B81400089A
:1001C800A3F5803A704700BF174B002B08BF134BAD
:1001D8009D46FFF7F5FF00218B460F461348144A4A
:1001E800121A00F0FFFF0E4B002B00D098470D4B62
:1001F800002B00D098470020002104000D000D4876
:10020800002802D00C4801F0AFF800F0C7FF20002A
:10021800290000F01DFF00F0B1FF00BF000008003A
:100228000000000000000000000000005C04002046
:10023800A0040020711300087D13000808B50121EF
:100248000B2000F0CFFABDE808400121102000F093
:10025800F9BA00BF10B582B04FF47042694640F257
:1002680001331248124CCDE9002300F039FC012378
:10027800694600930F4800238DF8043000F030FCE5
:10028800022369462046C0228DF80430009200F00F
:1002980027FC20460722062100F0A8FC0722114669
:1002A800204600F0A3FC02B010BD00BF000C0240C5
:1002B800000402400000024030B585B000234FF42E
:1002C80000221348134DADF80C3069464FF416540C
:1002D800CDE90043029200F001FD0D48012100F034
:1002E80085FD2B788BB10A4C8021204600F072FEE8
:1002F8000028F9D02978204600F0ACFD2B4613F8E9
:10030800012B6A781D46002AEED105B030BD00BF2A
:1003180000100140A414000838B5037893B10A4CC2
:1003280005468021204600F055FE0028F9D029789E
:10033800204600F08FFD2B4613F8012B6A781D46E6
:10034800002AEED138BD00BF00100140F0B5164FAD
:1003580085B001AD0021A7FB0023DB0803EB830474
:10036800A0EB440406463034E4B2092E0A4605F8E8
:10037800014B184601F10101EDD801AB013A0B4DD3
:100388009E185F1E8021284600F024FE0028F9D020
:100398002146284600F05EFDBE4202D016F801490B
:1003A800F0E705B0F0BD00BFCDCCCCCC00100140CB
:1003B800044A0023136018B100BF13688342FBD3BB
:1003C800704700BF78040020064A4FF47A71002372
:1003D80001FB00F0136018B100BF13688342FBD320
:1003E800704700BF78040020024A13680133136085
:1003F800704700BF78040020354A3648136800214A
:1004080043F0010313609160136823F0847323F4AD
:10041800803313605060136882B023F48023136024
:10042800D16000910191136843F48033136003E0B5
:10043800009BB3F5A06F09D0136803F40033019350
:10044800009B01330093019B002BF1D0204B1B68CC
:1004580013F4003318BF01230193019B012B05D02E
:100468001D4B4FF000629A6002B07047184B1B4951
:100478001A6C1B4842F080521A640A6842F480429F
:100488000A609A689A609A6842F400429A609A6888
:1004980042F4A0529A6058601A6842F080721A605A
:1004A8001A689201FCD50F4A40F2056111609968FB
:1004B80021F003019960996841F00201A2F5806278
:1004C8009960936803F00C03082BFAD1C8E700BFC2
:1004D800003802401030002400ED00E000700040B9
:1004E80008544007003C0240164A936803F00C0386
:1004F800042B0BD0082B0BD0134B124A13499268CC
:10050800C2F303128A5CD3400B617047104BF4E7C7
:100518005368516813F4800F01F03F01536814BF0A
:100528000B4A094AB2FBF1F1064A5268C2F301428A
:10053800C3F38813013201FB03F35200B3FBF2F358
:10054800DBE700BF003802400024F400040000206C
:1005580000127A000A4B0B481A68002142F0010287
:100568001A6099601A6822F0847222F480321A6044
:1005780058601A6822F480221A60D960704700BF58
:100588000038024010300024024B00229A70987004
:10059800704700BF0038024082B000230949019328
:1005A80000E04AB90A68019B01330193019BB3F546
:1005B800A06F02F40032F4D1024B1868C0F3404037
:1005C80002B0704700380240034A136823F0F8036A
:1005D80043EAC0001060704700380240014B1860C1
:1005E800704700BF00004742084B0022012883F8EB
:1005F800702083F8702006D0042803D1052283F8E0
:1006080070207047704783F87000704700380240C8
:10061800014BC3F8800E70470000474210B4019C9C
:1006280040EA046008435B08044C40EA8210013B3E
:1006380040EA034060605DF8044B704700380240B0
:10064800014B1866704700BF00004742034B09077B
:1006580041EA8011C3F88410704700BF0038024097
:10066800014B9866704700BF00004742014BD864B1
:10067800704700BF00004742034A936823F0EC63C9
:100688000B4303439360704700380240034A936862
:1006980023F078430B4303439360704700380240CC
:1006A800034A936823F0030318439060704700BF20
:1006B80000380240024B986800F00C00704700BFF9
:1006C80000380240034A936823F0F003184390600F
:1006D800704700BF00380240034A936823F4E05390
:1006E80018439060704700BF00380240034A93687F
:1006F80023F4604343EAC00090607047003802402A
:100708001F4A936803F00C03042B10B41BD0082B6A
:100718001CD01C4B03601A4A1B499468C4F3031489
:100728000C5DE34043609468C4F382240C5D23FAB3
:1007380004F4846092685DF8044BC2F342328A5C28
:10074800D340C3607047114B0360E4E753685168B6
:1007580013F4800F01F03F01536814BF0B4A094A94
:10076800B2FBF1F1064A5268C2F30142C3F388139F
:10077800013201FB03F35200B3FBF2F30360CAE753
:10078800003802400024F4001800002000127A000B
:1007980000F44073B3F5407F09D108498A6820F016
:1007A800704323F4407322F4F81213438B60034B15
:1007B8001A6FC0F30B0010431867704700380240E7
:1007C800014BC3F83C0E704700004742014BC3F889
:1007D800400E704700004742014BC3F85C01704768
:1007E80000004742044A136B11B118431063704765
:1007F80023EA00001063704700380240044A536B34
:1008080011B118435063704723EA000050637047E2
:1008180000380240044A936B11B118439063704743
:1008280023EA00009063704700380240044A136CC2
:1008380011B118431064704723EA00001064704730
:1008480000380240044A536C11B118435064704791
:1008580023EA00005064704700380240044A1369D4
:1008680011B118431061704723EA00001061704706
:1008780000380240044A536911B118435061704767
:1008880023EA00005061704700380240044A936927
:1008980011B118439061704723EA000090617047D6
:1008A80000380240044A136A11B1184310627047B5
:1008B80023EA00001062704700380240044A536A75
:1008C80011B118435062704723EA00005062704724
:1008D80000380240044A136D11B11843106570477F
:1008E80023EA00001065704700380240044A536D3F
:1008F80011B118435065704723EA000050657047EE
:1009080000380240044A936D11B11843906570474E
:1009180023EA00009065704700380240044A136ECD
:1009280011B118431066704723EA0000106670473B
:1009380000380240044A536E11B11843506670479C
:1009480023EA00005066704700380240044A537B8F
:1009580011B118435073704723EA00005073704771
:10096800003802404309012B0BD0022B094B0CBF66
:100978001B6F5B6F00F01F0023FA00F000F001000E
:100988007047044B1B6800F01F0023FA00F000F0CA
:100998000100704700380240024A536F43F08073E9
:1009A8005367704700380240034BDB68184214BF96
:1009B80001200020704700BF00380240014B9873A7
:1009C800704700BF0038024008B53C4B984222D01F
:1009D8003B4B984229D03B4B984230D03A4B9842F7
:1009E8000FD03A4B984234D0394B98423BD0394BD0
:1009F800984242D0384B984255D0384B984246D00E
:100A080008BD01210820FFF729FFBDE808400021A3
:100A18000820FFF723BF01210846FFF71FFFBDE8A5
:100A2800084000210120FFF719BF01210220FFF72C
:100A380015FFBDE8084000210220FFF70FBF012184
:100A48000420FFF70BFFBDE8084000210420FFF752
:100A580005BF01211020FFF701FFBDE80840002174
:100A68001020FFF7FBBE01212020FFF7F7FEBDE8AD
:100A7800084000212020FFF7F1BE01214020FFF7A8
:100A8800EDFEBDE8084000214020FFF7E7BE012148
:100A98004FF48070FFF7E2FEBDE8084000214FF4F4
:100AA8008070FFF7DBBE01218020FFF7D7FEBDE88D
:100AB800084000218020FFF7D1BE00BF000002409F
:100AC8000004024000080240000C024000100240EE
:100AD8000014024000180240001C0240002002409E
:100AE80000222DE9F04713460D684FF0010E03264A
:100AF80004E00133102B02F1020239D00EFA03FC94
:100B08003CEA0504F5D1076806FA02F427EA040767
:100B180007600F79D0F800A007FA02F9013F49EA07
:100B28000A09012FA046C0F800906FEA040411D802
:100B380087683C4084604C79876894403C43846073
:100B4800446824EA0C0444608C7947689C40A4B249
:100B58003C434460C46824EA0804C460CC79C7688C
:100B6800944001333C43102BC46002F10202C5D10A
:100B7800BDE8F0874FF6FF720023C0E900237047F5
:100B880082B04FF480330193019B0B430193019B87
:100B9800C361C161019BC361C3690193C3690193C7
:100BA80002B070470369194214BF01200020704742
:100BB800006980B2704700BF4369194214BF012021
:100BC80000207047406980B2704700BF01837047BA
:100BD800418370470AB1018370474183704700BF62
:100BE800416170474369594041617047CB0800EB48
:100BF800830001F00701036A89004FF00F0C0CFA1B
:100C080001FC23EA0C030362036A8A401A43026266
:100C1800704700BF08B52B4B98421BD02A4B98420F
:100C280022D02A4B98422BD0294B984206D0294BE8
:100C3800984231D0284B98423AD008BD01214FF450
:100C48000020FFF72FFEBDE8084000214FF40020E8
:100C5800FFF728BE01211020FFF730FEBDE808404D
:100C680000211020FFF72ABE01214FF40030FFF7C2
:100C780019FEBDE8084000214FF40030FFF712BE0E
:100C880001214FF48020FFF70DFEBDE80840002148
:100C98004FF48020FFF706BE01214FF48010FFF7C4
:100CA80001FEBDE8084000214FF48010FFF7FABDAF
:100CB80001212020FFF702FEBDE808400021202086
:100CC800FFF7FCBD00100140004400400048004010
:100CD800004C00400050004000140140038ACA88BC
:100CE8009BB223F4405330B513430D4689890382E0
:100CF8008289AB880446288922F4B0520343688964
:100D080022F00C0203431204120C9BB21343A3817A
:100D1800A38A9BB223F440730B4385B0A382684631
:100D2800FFF7EEFC1C4B9C4205D003F580639C4208
:100D380001D0029A00E0039AA389184813F4004FDF
:100D48002B68A58902EB820202EB820214BF5B00CA
:100D58009B00B2FBF3F3A0FB032149094FF0640C9D
:100D68000A010CFB113329040AD41B013233A0FBFE
:100D78000313C3F3431313439BB2238105B030BD60
:100D8800DB003233A0FB0313C3F3421313439BB2BC
:100D9800238105B030BD00BF001001401F85EB5115
:100DA80000234FF416514FF44022C0E9001382602B
:100DB800838170470B88B1F804C0028A00B5B1F886
:100DC80002E0C98843EA0E0343EA0C0392B20B43DC
:100DD80022F470629BB2134303825DF804FB00BFE8
:100DE8000023038043808380C3807047838921B1B7
:100DF8009BB243F400538381704723F400531B04D0
:100E08001B0C8381704700BF028B02F47F42028370
:100E1800038B9BB219430183704700BF838931B1AB
:100E28006FEA43436FEA53439BB283817047C3F32E
:100E38000E038381704700BF838A21B19BB243F4BC
:100E480000638382704723F400631B041B0C8382B6
:100E5800704700BFC1F30801818070478088C0F3E4
:100E680008007047038A23F00F031B041B0C03823E
:100E7800038A9BB219430182704700BF838921B15D
:100E88009BB243F002038381704723F002031B04E3
:100E98001B0C8381704700BF838923F400631B0404
:100EA8001B0C838183899BB219438181704700BFE2
:100EB800038A23F020031B041B0C0382038A9BB2C2
:100EC80019430182704700BF038A21B19BB243F4E2
:100ED80080430382704723F480431B041B0C038266
:100EE800704700BF83899BB243F001038381704739
:100EF800838A21B19BB243F008038382704723F0B1
:100F080008031B041B0C8382704700BF028BD2B2FC
:100F18000283038B9BB243EA01210183704700BF20
:100F2800838A21B19BB243F020038382704723F068
:100F380020031B041B0C8382704700BF838A21B1E6
:100F48009BB243F010038382704723F010031B0405
:100F58001B0C8382704700BF838A23F004031B04A1
:100F68001B0C8382838A9BB219438182704700BF1E
:100F7800838A21B19BB243F002038382704723F036
:100F880002031B041B0C8382704700BF838A9BB239
:100F980012B119438182704723EA010181827047A7
:100FA80001F01F0CC1F342110123012903FA0CF3CC
:100FB8000DD002290CBF103014301AB10268134347
:100FC80003607047026822EA0303036070470C302D
:100FD800F3E700BF0388194214BF012000207047BF
:100FE800C94389B201807047C1F3421201F01F0C56
:100FF8000123012A03FA0CF313D0022A0CBF028A38
:10100800828A92B21340028892B243B10123090A3C
:1010180003FA01F10A4214BF184600207047184627
:101028007047828992B21340EDE700BF090A012395
:101038008B40DB439BB20380704700BFE814000875
:10104800000000205C0400205C040020A0040020B4
:1010580080B584B0FFF7F2F8FFF7FCF8FFF72CF93A
:101068002A4B2B491B682B482B4F2C4EDFF8B4908A
:10107800DFF8B880A1FB03134FF0E0229B0C013B83
:101088005361F0240021072380F8234091616846CA
:101098001361FFF735FB224C4FF470414046FFF7D0
:1010A800A1FD3B788BB13D4680212046FFF792FF9A
:1010B8000028F9D029782046FFF7CCFE2B4613F8F4
:1010C800012B6A781D46002AEED13068FFF73EF9F9
:1010D80099F800308BB1134D80212046FFF77AFF35
:1010E8000028F9D029782046FFF7B4FE2B4613F8DC
:1010F800012B6A781D46002AEED100230A4A336084
:1011080000BF33689342FBD9C6E700BF1400002034
:1011180083DE1B4300ED00E0B014000878040020D3
:1011280000100140AC1400083F420F00000C0240C0
:10113800002103E00B4B5B58435004310A480B4B2A
:1011480042189A42F6D30A4A02E0002342F8043BC6
:10115800084B9A42F9D3FFF74FF900F01FF8FFF751
:1011680077FF7047E8140008000000205C040020A6
:101178005C040020A0040020FEE7000008B5002160
:10118800044600F08BF8044B1868C36B03B198470A
:10119800204600F09BF900BFB414000870B50D4E4E
:1011A8000D4D761BB61006D0002455F8043B0134CB
:1011B8009847A642F9D1094E094D761B00F07AF9F5
:1011C800B61006D0002455F8043B01349847A642CF
:1011D800F9D170BDDC140008DC140008E414000820
:1011E800DC140008830730B548D0541E002A3FD0CD
:1011F800CAB2034601E0013C3AD303F8012B9D072C
:10120800F9D1032C2DD9CDB245EA05250F2C45EA95
:10121800054536D9A4F1100222F00F0C03F1200E77
:10122800E6444FEA121C03F1100242E9045542E970
:10123800025510327245F8D10CF1010214F00C0F6E
:1012480003EB021204F00F0C13D0ACF1040323F0EB
:1012580003030433134442F8045B9342FBD10CF0BC
:1012680003042CB1CAB21C4403F8012B9C42FBD1E5
:1012780030BD64461346002CF4D1F9E70346144602
:10128800BFE71A46A446E0E7024B13B1024800F054
:101298006BB87047000000007D1300082DE9F84F77
:1012A8002F4B2DED028B834618680F4600F082F80D
:1012B8002C4BD3F80080D8F84861AEB108EE10BACC
:1012C8004FF001094FF0000A7468651E0CD4013410
:1012D80006EB840487B1D4F80031BB420CD0013D41
:1012E8006B1CA4F10404F5D1BDEC028B1C4B1868EF
:1012F800BDE8F84F00F066B873682268013BAB425E
:101308000CBF7560C4F800A0002AE8D0D6F88801A0
:10131800D6F804B009FA05F101420BD1904772687A
:101328005A4513D1D8F84831B342D8D01E46002EBA
:10133800CAD1D9E7D6F88C0101420CD1D4F8801073
:1013480018EE100A904772685A45EBD0D8F84861F1
:10135800002EB9D1C8E7D4F880009047DFE700BF76
:1013680058040020B4140008002301461A46184601
:1013780000F02AB838B5084B084D5B1B9C1007D005
:10138800043B1D44013C55F804399847002CF9D119
:10139800BDE8384000F094B8E8140008E4140008E8
:1013A800704700BF704700BF704700BF704700BF5D
:1013B800704700BF704700BF012070470120704789
:1013C800704700BF704700BF2DE9F047DFF880A0E5
:1013D8000646DAF8000098460F469146FFF7EAFFFE
:1013E8001A4B1B68D3F8484124B365681F2D26DCC7
:1013F8005EB96B1C0235DAF80000636044F82570AA
:10140800FFF7E0FF0020BDE8F08704EB850101232A
:10141800C1F88890D4F88821AB401A43022EC4F84A
:101428008821C1F80881E4D1D4F88C211343C4F889
:101438008C31DEE703F5A674C3F84841D5E7DAF83E
:101448000000FFF7BFFF4FF0FF30DCE7B4140008DF
:10145800580400203B3E0B3E103E253E333E033EE3
:10146800063E143E0E3E0D3E243E123E273E023EF0
:10147800183E093E0A3E00003B3E0B3E103E253E0C
:10148800333E033E063E143E0E3E0D3E243E123EC3
:10149800273E023E183E093E0A3E00000A544553C4
:1014A80054494E470A00000048490A00300000200D
:1014B80000000000F8B500BFF8BC08BC9E467047A5
:0C14C800F8B500BFF8BC08BC9E46704799
:0814D400F4ECFF7F01000000B1
:0814DC0091120008AD010008A7
:0414E4008901000872
:1014E80000000000000000000000000001020304EA
:1014F80006070809007A030A000000000102030435
:10150800010203040607080930000020000000005B
:10151800000000001C03002084030020EC030020CE
:1015280000000000000000000000000000000000B3
:1015380000000000000000000000000000000000A3
:101548000000000000000000000000000000000093
:101558000000000000000000000000000000000083
:101568000000000000000000000000000000000073
:101578000000000000000000000000000000000063
:101588000000000000000000000000000000000053
:101598000000000000000000000000000000000043
:1015A8000000000000000000000000000000000033
:1015B8000000000000000000010000000000000022
:1015C8000E33CDAB34126DE6ECDE05000B000000E7
:1015D8000000000000000000000000000000000003
:1015E80000000000000000000000000000000000F3
:1015F80000000000000000000000000000000000E3
:1016080000000000000000000000000000000000D2
:0C193800000000000000000084040020FB
:0400000508001139A5
:00000001FF
